:020000040000FA
:040000004CEF03F0CE
:100600000000EF0ED36E936A956A816A836A000ECA
:10061000036E010E026E83808382839483960D0E97
:10062000016EFC0EE82EFED7012EFCD7839083824C
:10063000838483960D0E016EFC0EE82EFED7012EEC
:10064000FCD783908392838483860D0E016EFC0E0B
:10065000E82EFED7012EFCD7838083928394838675
:100660000D0E016EFC0EE82EFED7012EFCD7024ABD
:10067000032A030E025C020E0358D8A042EF03F0D7
:1006800044EF03F00BEF03F08390839283948396FF
:0E06900048EF03F000EF00F0000101EF03F06F
:020000040020DA
:08000000FFFFFFFFFFFFFFFF00
:020000040030CA
:0E000000FF08181EFF8081FF00000FE00F4078
:00000001FF
