:020000040000FA
:0400000007EF00F016
:0A0008000682EAED03F0ACEF04F00D
:10060000005249542057454C434F4D455320594FB4
:0306100055000092
:10061400F29EF298F096F098010EA1EC04F0819805
:10062400818A818C818E81B01AEF03F01CEF03F074
:1006340024EF03F0800EA1EC04F0310E96EC04F0EC
:10064400D3EF03F081B229EF03F02BEF03F033EF84
:1006540003F0800EA1EC04F0320E96EC04F0D3EF1C
:1006640003F081B438EF03F03AEF03F042EF03F004
:10067400800EA1EC04F0330E96EC04F0D3EF03F0FB
:100684008188819A818C818E81B04BEF03F04DEF8C
:1006940003F055EF03F0800EA1EC04F0340E96EC59
:1006A40004F0D3EF03F081B25AEF03F05CEF03F0F0
:1006B40064EF03F0800EA1EC04F0350E96EC04F028
:1006C400D3EF03F081B469EF03F06BEF03F073EF42
:1006D40003F0800EA1EC04F0360E96EC04F0D3EF98
:1006E40003F08188818A819C818E81B07CEF03F044
:1006F4007EEF03F086EF03F0800EA1EC04F0370EDA
:1007040096EC04F0D3EF03F081B28BEF03F08DEF9E
:1007140003F095EF03F0800EA1EC04F0380E96EC94
:1007240004F0D3EF03F081B49AEF03F09CEF03F0ED
:10073400A4EF03F0800EA1EC04F0390E96EC04F063
:10074400D3EF03F08188818A818C819E81B0ADEFE3
:1007540003F0AFEF03F0B7EF03F0800EA1EC04F069
:100764002A0E96EC04F0D3EF03F081B2BCEF03F051
:10077400BEEF03F0C6EF03F0800EA1EC04F0300EE0
:1007840096EC04F0D3EF03F081B4CBEF03F0CDEF9C
:1007940003F011EF03F0800EA1EC04F0230E96ECAD
:1007A40004F08198819A819C819E030E036E8A0EC7
:1007B400026E560EE82EFED7022EFCD7032EFAD771
:1007C400F288F086F088F292F090F092F28E1200A5
:1007D4000600F2A2F0EF03F0F2EF03F0FBEF03F0F8
:1007E400F2A8F7EF03F0F9EF03F0FBEF03F00AECE4
:1007F40003F0F0A000EF04F002EF04F00BEF04F0BC
:10080400F0A607EF04F009EF04F00BEF04F00AEC94
:1008140003F0F0A210EF04F012EF04F01BEF04F069
:10082400F0A817EF04F019EF04F01BEF04F00AEC42
:1008340003F006921100010E80EC04F0680E056EC0
:10084400E40EE82EFED7052EFCD700D0380E80EC3F
:1008540004F00D0E056EFC0EE82EFED7052EFCD717
:100864000C0E80EC04F00D0E056EFC0EE82EFED787
:10087400052EFCD7060E80EC04F00D0E056EFC0E62
:10088400E82EFED7052EFCD7800E80EC04F0120073
:10089400EF0ED36E0F0EC16E956A0F0E936E946AAF
:1008A400836A826A8294840EF16EF80EF06EF2927C
:1008B400F288F28E8198819A819C819E1DEC04F0CD
:1008C400010E056E6AEC04F066EF04F007EF00F029
:1008D40073EF04F005C0F6FF0800F5508BEC04F04C
:1008E400052A05C0F6FF0800F5500009D8A47DEFDD
:1008F40004F07FEF04F06CEF04F01200046E04C007
:1009040083FF82928286C80E00D0E82EFDD782969D
:100914001200046E04C083FF82828286C80E00D057
:10092400E82EFDD782961200016E01C083FF8282F9
:100934008286C80E00D0E82EFDD782961200016E82
:1009440001C083FF82928286C80E00D0E82EFDD7B4
:100954008296120006900692000EF86E060EF76E4E
:0609640000014AEF04F05F
:020000040020DA
:08000000FFFFFFFFFFFFFFFF00
:020000040030CA
:0E000000FF08181EFF0081FF00000FE00F40F8
:00000001FF
