:020000040000FA
:040000003EEF03F0DC
:100600000000EF0ED36E010EC26E0E0EC16E110E03
:10061000C06E0F0E936E946A92803C0EBD6E1E0EDD
:10062000BE6E3E0ECB6E030ECA6ECA8435EC03F06E
:10063000C4CFBEFFC3CF03F00340E8423F0B036EBD
:100640000350CF09036EBD500314BD6E060E026E3B
:10065000130E016EAE0EE82EFED7012EFCD7022E31
:10066000FAD716EF03F000EF00F0C282C2B23BEF00
:1006700003F03DEF03F036EF03F01200000101EF4D
:0206800003F085
:020000040020DA
:08000000FFFFFFFFFFFFFFFF00
:020000040030CA
:0E000000FF08181EFF0181FF00000FE00F40F7
:00000001FF
